{
  "transactions": [
    {
      "hash": "0x5ec62f0fc92037240890b3c3a37b7299da14a31d2f8811ad0907aaadaf1dd055",
      "transactionType": "CALL",
      "contractName": null,
      "contractAddress": "0xe7f1725e7734ce288f8367e1bb143e90bb3f0512",
      "function": "flipMood(uint256)",
      "arguments": [
        "0"
      ],
      "transaction": {
        "from": "0xf39fd6e51aad88f6f4ce6ab8827279cfffb92266",
        "to": "0xe7f1725e7734ce288f8367e1bb143e90bb3f0512",
        "gas": "0x1198a",
        "value": "0x0",
        "input": "0xc1a147a00000000000000000000000000000000000000000000000000000000000000000",
        "nonce": "0x3",
        "chainId": "0x7a69"
      },
      "additionalContracts": [],
      "isFixedGasLimit": false
    }
  ],
  "receipts": [
    {
      "status": "0x1",
      "cumulativeGasUsed": "0xc082",
      "logs": [],
      "logsBloom": "0x00000000000000000000000000000000000000000000000000000000000000000000000000000000000000000000000000000000000000000000000000000000000000000000000000000000000000000000000000000000000000000000000000000000000000000000000000000000000000000000000000000000000000000000000000000000000000000000000000000000000000000000000000000000000000000000000000000000000000000000000000000000000000000000000000000000000000000000000000000000000000000000000000000000000000000000000000000000000000000000000000000000000000000000000000000000",
      "type": "0x2",
      "transactionHash": "0x5ec62f0fc92037240890b3c3a37b7299da14a31d2f8811ad0907aaadaf1dd055",
      "transactionIndex": "0x0",
      "blockHash": "0xa7181baf183f9ac66993e0dfb655243bfa0057fdab49aac4a3fbe6f2c58664d1",
      "blockNumber": "0x30",
      "gasUsed": "0xc082",
      "effectiveGasPrice": "0x1e4dff",
      "blobGasPrice": "0x1",
      "from": "0xf39fd6e51aad88f6f4ce6ab8827279cfffb92266",
      "to": "0xe7f1725e7734ce288f8367e1bb143e90bb3f0512",
      "contractAddress": null
    }
  ],
  "libraries": [],
  "pending": [],
  "returns": {},
  "timestamp": 1766839746031,
  "chain": 31337,
  "commit": "053effe"
}